{
  "_format": "hh-sol-artifact-1",
  "contractName": "ERC20MinterBurnerDecimals",
  "sourceName": "contracts/ERC20MinterBurnerDecimals.sol",
  "abi": [
    {
      "inputs": [
        {
          "internalType": "string",
          "name": "name",
          "type": "string"
        },
        {
          "internalType": "string",
          "name": "symbol",
          "type": "string"
        },
        {
          "internalType": "uint8",
          "name": "decimals_",
          "type": "uint8"
        }
      ],
      "stateMutability": "nonpayable",
      "type": "constructor"
    },
    {
      "anonymous": false,
      "inputs": [
        {
          "indexed": true,
          "internalType": "address",
          "name": "owner",
          "type": "address"
        },
        {
          "indexed": true,
          "internalType": "address",
          "name": "spender",
          "type": "address"
        },
        {
          "indexed": false,
          "internalType": "uint256",
          "name": "value",
          "type": "uint256"
        }
      ],
      "name": "Approval",
      "type": "event"
    },
    {
      "anonymous": false,
      "inputs": [
        {
          "indexed": false,
          "internalType": "address",
          "name": "account",
          "type": "address"
        }
      ],
      "name": "Paused",
      "type": "event"
    },
    {
      "anonymous": false,
      "inputs": [
        {
          "indexed": true,
          "internalType": "bytes32",
          "name": "role",
          "type": "bytes32"
        },
        {
          "indexed": true,
          "internalType": "bytes32",
          "name": "previousAdminRole",
          "type": "bytes32"
        },
        {
          "indexed": true,
          "internalType": "bytes32",
          "name": "newAdminRole",
          "type": "bytes32"
        }
      ],
      "name": "RoleAdminChanged",
      "type": "event"
    },
    {
      "anonymous": false,
      "inputs": [
        {
          "indexed": true,
          "internalType": "bytes32",
          "name": "role",
          "type": "bytes32"
        },
        {
          "indexed": true,
          "internalType": "address",
          "name": "account",
          "type": "address"
        },
        {
          "indexed": true,
          "internalType": "address",
          "name": "sender",
          "type": "address"
        }
      ],
      "name": "RoleGranted",
      "type": "event"
    },
    {
      "anonymous": false,
      "inputs": [
        {
          "indexed": true,
          "internalType": "bytes32",
          "name": "role",
          "type": "bytes32"
        },
        {
          "indexed": true,
          "internalType": "address",
          "name": "account",
          "type": "address"
        },
        {
          "indexed": true,
          "internalType": "address",
          "name": "sender",
          "type": "address"
        }
      ],
      "name": "RoleRevoked",
      "type": "event"
    },
    {
      "anonymous": false,
      "inputs": [
        {
          "indexed": true,
          "internalType": "address",
          "name": "from",
          "type": "address"
        },
        {
          "indexed": true,
          "internalType": "address",
          "name": "to",
          "type": "address"
        },
        {
          "indexed": false,
          "internalType": "uint256",
          "name": "value",
          "type": "uint256"
        }
      ],
      "name": "Transfer",
      "type": "event"
    },
    {
      "anonymous": false,
      "inputs": [
        {
          "indexed": false,
          "internalType": "address",
          "name": "account",
          "type": "address"
        }
      ],
      "name": "Unpaused",
      "type": "event"
    },
    {
      "inputs": [],
      "name": "BURNER_ROLE",
      "outputs": [
        {
          "internalType": "bytes32",
          "name": "",
          "type": "bytes32"
        }
      ],
      "stateMutability": "view",
      "type": "function"
    },
    {
      "inputs": [],
      "name": "DEFAULT_ADMIN_ROLE",
      "outputs": [
        {
          "internalType": "bytes32",
          "name": "",
          "type": "bytes32"
        }
      ],
      "stateMutability": "view",
      "type": "function"
    },
    {
      "inputs": [],
      "name": "MINTER_ROLE",
      "outputs": [
        {
          "internalType": "bytes32",
          "name": "",
          "type": "bytes32"
        }
      ],
      "stateMutability": "view",
      "type": "function"
    },
    {
      "inputs": [],
      "name": "PAUSER_ROLE",
      "outputs": [
        {
          "internalType": "bytes32",
          "name": "",
          "type": "bytes32"
        }
      ],
      "stateMutability": "view",
      "type": "function"
    },
    {
      "inputs": [
        {
          "internalType": "address",
          "name": "owner",
          "type": "address"
        },
        {
          "internalType": "address",
          "name": "spender",
          "type": "address"
        }
      ],
      "name": "allowance",
      "outputs": [
        {
          "internalType": "uint256",
          "name": "",
          "type": "uint256"
        }
      ],
      "stateMutability": "view",
      "type": "function"
    },
    {
      "inputs": [
        {
          "internalType": "address",
          "name": "spender",
          "type": "address"
        },
        {
          "internalType": "uint256",
          "name": "amount",
          "type": "uint256"
        }
      ],
      "name": "approve",
      "outputs": [
        {
          "internalType": "bool",
          "name": "",
          "type": "bool"
        }
      ],
      "stateMutability": "nonpayable",
      "type": "function"
    },
    {
      "inputs": [
        {
          "internalType": "address",
          "name": "account",
          "type": "address"
        }
      ],
      "name": "balanceOf",
      "outputs": [
        {
          "internalType": "uint256",
          "name": "",
          "type": "uint256"
        }
      ],
      "stateMutability": "view",
      "type": "function"
    },
    {
      "inputs": [
        {
          "internalType": "uint256",
          "name": "amount",
          "type": "uint256"
        }
      ],
      "name": "burn",
      "outputs": [],
      "stateMutability": "nonpayable",
      "type": "function"
    },
    {
      "inputs": [
        {
          "internalType": "address",
          "name": "from",
          "type": "address"
        },
        {
          "internalType": "uint256",
          "name": "amount",
          "type": "uint256"
        }
      ],
      "name": "burnCoins",
      "outputs": [],
      "stateMutability": "nonpayable",
      "type": "function"
    },
    {
      "inputs": [
        {
          "internalType": "address",
          "name": "account",
          "type": "address"
        },
        {
          "internalType": "uint256",
          "name": "amount",
          "type": "uint256"
        }
      ],
      "name": "burnFrom",
      "outputs": [],
      "stateMutability": "nonpayable",
      "type": "function"
    },
    {
      "inputs": [],
      "name": "decimals",
      "outputs": [
        {
          "internalType": "uint8",
          "name": "",
          "type": "uint8"
        }
      ],
      "stateMutability": "view",
      "type": "function"
    },
    {
      "inputs": [
        {
          "internalType": "address",
          "name": "spender",
          "type": "address"
        },
        {
          "internalType": "uint256",
          "name": "subtractedValue",
          "type": "uint256"
        }
      ],
      "name": "decreaseAllowance",
      "outputs": [
        {
          "internalType": "bool",
          "name": "",
          "type": "bool"
        }
      ],
      "stateMutability": "nonpayable",
      "type": "function"
    },
    {
      "inputs": [
        {
          "internalType": "bytes32",
          "name": "role",
          "type": "bytes32"
        }
      ],
      "name": "getRoleAdmin",
      "outputs": [
        {
          "internalType": "bytes32",
          "name": "",
          "type": "bytes32"
        }
      ],
      "stateMutability": "view",
      "type": "function"
    },
    {
      "inputs": [
        {
          "internalType": "bytes32",
          "name": "role",
          "type": "bytes32"
        },
        {
          "internalType": "uint256",
          "name": "index",
          "type": "uint256"
        }
      ],
      "name": "getRoleMember",
      "outputs": [
        {
          "internalType": "address",
          "name": "",
          "type": "address"
        }
      ],
      "stateMutability": "view",
      "type": "function"
    },
    {
      "inputs": [
        {
          "internalType": "bytes32",
          "name": "role",
          "type": "bytes32"
        }
      ],
      "name": "getRoleMemberCount",
      "outputs": [
        {
          "internalType": "uint256",
          "name": "",
          "type": "uint256"
        }
      ],
      "stateMutability": "view",
      "type": "function"
    },
    {
      "inputs": [
        {
          "internalType": "bytes32",
          "name": "role",
          "type": "bytes32"
        },
        {
          "internalType": "address",
          "name": "account",
          "type": "address"
        }
      ],
      "name": "grantRole",
      "outputs": [],
      "stateMutability": "nonpayable",
      "type": "function"
    },
    {
      "inputs": [
        {
          "internalType": "bytes32",
          "name": "role",
          "type": "bytes32"
        },
        {
          "internalType": "address",
          "name": "account",
          "type": "address"
        }
      ],
      "name": "hasRole",
      "outputs": [
        {
          "internalType": "bool",
          "name": "",
          "type": "bool"
        }
      ],
      "stateMutability": "view",
      "type": "function"
    },
    {
      "inputs": [
        {
          "internalType": "address",
          "name": "spender",
          "type": "address"
        },
        {
          "internalType": "uint256",
          "name": "addedValue",
          "type": "uint256"
        }
      ],
      "name": "increaseAllowance",
      "outputs": [
        {
          "internalType": "bool",
          "name": "",
          "type": "bool"
        }
      ],
      "stateMutability": "nonpayable",
      "type": "function"
    },
    {
      "inputs": [
        {
          "internalType": "address",
          "name": "to",
          "type": "address"
        },
        {
          "internalType": "uint256",
          "name": "amount",
          "type": "uint256"
        }
      ],
      "name": "mint",
      "outputs": [],
      "stateMutability": "nonpayable",
      "type": "function"
    },
    {
      "inputs": [],
      "name": "name",
      "outputs": [
        {
          "internalType": "string",
          "name": "",
          "type": "string"
        }
      ],
      "stateMutability": "view",
      "type": "function"
    },
    {
      "inputs": [],
      "name": "pause",
      "outputs": [],
      "stateMutability": "nonpayable",
      "type": "function"
    },
    {
      "inputs": [],
      "name": "paused",
      "outputs": [
        {
          "internalType": "bool",
          "name": "",
          "type": "bool"
        }
      ],
      "stateMutability": "view",
      "type": "function"
    },
    {
      "inputs": [
        {
          "internalType": "bytes32",
          "name": "role",
          "type": "bytes32"
        },
        {
          "internalType": "address",
          "name": "account",
          "type": "address"
        }
      ],
      "name": "renounceRole",
      "outputs": [],
      "stateMutability": "nonpayable",
      "type": "function"
    },
    {
      "inputs": [
        {
          "internalType": "bytes32",
          "name": "role",
          "type": "bytes32"
        },
        {
          "internalType": "address",
          "name": "account",
          "type": "address"
        }
      ],
      "name": "revokeRole",
      "outputs": [],
      "stateMutability": "nonpayable",
      "type": "function"
    },
    {
      "inputs": [
        {
          "internalType": "bytes4",
          "name": "interfaceId",
          "type": "bytes4"
        }
      ],
      "name": "supportsInterface",
      "outputs": [
        {
          "internalType": "bool",
          "name": "",
          "type": "bool"
        }
      ],
      "stateMutability": "view",
      "type": "function"
    },
    {
      "inputs": [],
      "name": "symbol",
      "outputs": [
        {
          "internalType": "string",
          "name": "",
          "type": "string"
        }
      ],
      "stateMutability": "view",
      "type": "function"
    },
    {
      "inputs": [],
      "name": "totalSupply",
      "outputs": [
        {
          "internalType": "uint256",
          "name": "",
          "type": "uint256"
        }
      ],
      "stateMutability": "view",
      "type": "function"
    },
    {
      "inputs": [
        {
          "internalType": "address",
          "name": "to",
          "type": "address"
        },
        {
          "internalType": "uint256",
          "name": "amount",
          "type": "uint256"
        }
      ],
      "name": "transfer",
      "outputs": [
        {
          "internalType": "bool",
          "name": "",
          "type": "bool"
        }
      ],
      "stateMutability": "nonpayable",
      "type": "function"
    },
    {
      "inputs": [
        {
          "internalType": "address",
          "name": "from",
          "type": "address"
        },
        {
          "internalType": "address",
          "name": "to",
          "type": "address"
        },
        {
          "internalType": "uint256",
          "name": "amount",
          "type": "uint256"
        }
      ],
      "name": "transferFrom",
      "outputs": [
        {
          "internalType": "bool",
          "name": "",
          "type": "bool"
        }
      ],
      "stateMutability": "nonpayable",
      "type": "function"
    },
    {
      "inputs": [],
      "name": "unpause",
      "outputs": [],
      "stateMutability": "nonpayable",
      "type": "function"
    }
  ],
  "bytecode": "0x60806040523480156200001157600080fd5b5060405162001e4738038062001e478339810160408190526200003491620003f6565b8251839083906200004d90600590602085019062000283565b5080516200006390600690602084019062000283565b50506007805460ff19169055506200007d6000336200011e565b620000a97f9f2df0fed2c77648de5860a4cc508cd0818c85b8b8a1ab4ceeef8d981c8956a6336200011e565b620000d57f65d7a28e3265b37a6474929f336521b332c1681b933f6cb9f3376673440d862a336200011e565b620001017f3c11d16cbaffd01df69ce1c404f6340ee057498f5f00246190ea54220576a848336200011e565b6007805461ff00191661010060ff841602179055505050620004b8565b6200012a82826200012e565b5050565b6200014582826200017160201b620009f61760201c565b60008281526001602090815260409091206200016c91839062000a7a62000211821b17901c565b505050565b6000828152602081815260408083206001600160a01b038516845290915290205460ff166200012a576000828152602081815260408083206001600160a01b03851684529091529020805460ff19166001179055620001cd3390565b6001600160a01b0316816001600160a01b0316837f2f8788117e7eff1d82e926ec794901d17c78024a50270940304540a733656f0d60405160405180910390a45050565b600062000228836001600160a01b03841662000231565b90505b92915050565b60008181526001830160205260408120546200027a575081546001818101845560008481526020808220909301849055845484825282860190935260409020919091556200022b565b5060006200022b565b82805462000291906200047b565b90600052602060002090601f016020900481019282620002b5576000855562000300565b82601f10620002d057805160ff191683800117855562000300565b8280016001018555821562000300579182015b8281111562000300578251825591602001919060010190620002e3565b506200030e92915062000312565b5090565b5b808211156200030e576000815560010162000313565b634e487b7160e01b600052604160045260246000fd5b600082601f8301126200035157600080fd5b81516001600160401b03808211156200036e576200036e62000329565b604051601f8301601f19908116603f0116810190828211818310171562000399576200039962000329565b81604052838152602092508683858801011115620003b657600080fd5b600091505b83821015620003da5785820183015181830184015290820190620003bb565b83821115620003ec5760008385830101525b9695505050505050565b6000806000606084860312156200040c57600080fd5b83516001600160401b03808211156200042457600080fd5b62000432878388016200033f565b945060208601519150808211156200044957600080fd5b5062000458868287016200033f565b925050604084015160ff811681146200047057600080fd5b809150509250925092565b600181811c908216806200049057607f821691505b60208210811415620004b257634e487b7160e01b600052602260045260246000fd5b50919050565b61197f80620004c86000396000f3fe608060405234801561001057600080fd5b50600436106101da5760003560e01c80635c975abb11610104578063a217fddf116100a2578063d539139311610071578063d53913931461040d578063d547741f14610434578063dd62ed3e14610447578063e63ab1e91461045a57600080fd5b8063a217fddf146103cc578063a457c2d7146103d4578063a9059cbb146103e7578063ca15c873146103fa57600080fd5b80638456cb59116100de5780638456cb591461037e5780639010d07c1461038657806391d14854146103b157806395d89b41146103c457600080fd5b80635c975abb1461033757806370a082311461034257806379cc67901461036b57600080fd5b8063282c51f31161017c578063395093511161014b57806339509351146102f65780633f4ba83a1461030957806340c10f191461031157806342966c681461032457600080fd5b8063282c51f31461028c5780632f2ff15d146102b3578063313ce567146102c657806336568abe146102e357600080fd5b806318160ddd116101b857806318160ddd1461022f5780631cf2c7e21461024157806323b872dd14610256578063248a9ca31461026957600080fd5b806301ffc9a7146101df57806306fdde0314610207578063095ea7b31461021c575b600080fd5b6101f26101ed366004611605565b610481565b60405190151581526020015b60405180910390f35b61020f6104ac565b6040516101fe919061165b565b6101f261022a3660046116aa565b61053e565b6004545b6040519081526020016101fe565b61025461024f3660046116aa565b610556565b005b6101f26102643660046116d4565b6105f3565b610233610277366004611710565b60009081526020819052604090206001015490565b6102337f3c11d16cbaffd01df69ce1c404f6340ee057498f5f00246190ea54220576a84881565b6102546102c1366004611729565b610617565b600754610100900460ff1660405160ff90911681526020016101fe565b6102546102f1366004611729565b610641565b6101f26103043660046116aa565b6106bb565b6102546106dd565b61025461031f3660046116aa565b610771565b610254610332366004611710565b610805565b60075460ff166101f2565b610233610350366004611755565b6001600160a01b031660009081526002602052604090205490565b6102546103793660046116aa565b610812565b61025461081d565b610399610394366004611770565b6108af565b6040516001600160a01b0390911681526020016101fe565b6101f26103bf366004611729565b6108ce565b61020f6108f7565b610233600081565b6101f26103e23660046116aa565b610906565b6101f26103f53660046116aa565b610981565b610233610408366004611710565b61098f565b6102337f9f2df0fed2c77648de5860a4cc508cd0818c85b8b8a1ab4ceeef8d981c8956a681565b610254610442366004611729565b6109a6565b610233610455366004611792565b6109cb565b6102337f65d7a28e3265b37a6474929f336521b332c1681b933f6cb9f3376673440d862a81565b60006001600160e01b03198216635a05180f60e01b14806104a657506104a682610a8f565b92915050565b6060600580546104bb906117bc565b80601f01602080910402602001604051908101604052809291908181526020018280546104e7906117bc565b80156105345780601f1061050957610100808354040283529160200191610534565b820191906000526020600020905b81548152906001019060200180831161051757829003601f168201915b5050505050905090565b60003361054c818585610ac4565b5060019392505050565b6105807f3c11d16cbaffd01df69ce1c404f6340ee057498f5f00246190ea54220576a848336108ce565b6105e55760405162461bcd60e51b8152602060048201526038602482015260008051602061192a83398151915260448201527f68617665206275726e657220726f6c6520746f206275726e000000000000000060648201526084015b60405180910390fd5b6105ef8282610be8565b5050565b600033610601858285610d28565b61060c858585610da2565b506001949350505050565b60008281526020819052604090206001015461063281610f58565b61063c8383610f62565b505050565b6001600160a01b03811633146106b15760405162461bcd60e51b815260206004820152602f60248201527f416363657373436f6e74726f6c3a2063616e206f6e6c792072656e6f756e636560448201526e103937b632b9903337b91039b2b63360891b60648201526084016105dc565b6105ef8282610f84565b60003361054c8185856106ce83836109cb565b6106d8919061180d565b610ac4565b6107077f65d7a28e3265b37a6474929f336521b332c1681b933f6cb9f3376673440d862a336108ce565b6107675760405162461bcd60e51b815260206004820152603b602482015260008051602061192a83398151915260448201527f686176652070617573657220726f6c6520746f20756e7061757365000000000060648201526084016105dc565b61076f610fa6565b565b61079b7f9f2df0fed2c77648de5860a4cc508cd0818c85b8b8a1ab4ceeef8d981c8956a6336108ce565b6107fb5760405162461bcd60e51b8152602060048201526038602482015260008051602061192a83398151915260448201527f68617665206d696e74657220726f6c6520746f206d696e74000000000000000060648201526084016105dc565b6105ef8282610ff8565b61080f3382610be8565b50565b6105e5823383610d28565b6108477f65d7a28e3265b37a6474929f336521b332c1681b933f6cb9f3376673440d862a336108ce565b6108a75760405162461bcd60e51b8152602060048201526039602482015260008051602061192a83398151915260448201527f686176652070617573657220726f6c6520746f2070617573650000000000000060648201526084016105dc565b61076f6110c5565b60008281526001602052604081206108c79083611102565b9392505050565b6000918252602082815260408084206001600160a01b0393909316845291905290205460ff1690565b6060600680546104bb906117bc565b6000338161091482866109cb565b9050838110156109745760405162461bcd60e51b815260206004820152602560248201527f45524332303a2064656372656173656420616c6c6f77616e63652062656c6f77604482015264207a65726f60d81b60648201526084016105dc565b61060c8286868403610ac4565b60003361054c818585610da2565b60008181526001602052604081206104a69061110e565b6000828152602081905260409020600101546109c181610f58565b61063c8383610f84565b6001600160a01b03918216600090815260036020908152604080832093909416825291909152205490565b610a0082826108ce565b6105ef576000828152602081815260408083206001600160a01b03851684529091529020805460ff19166001179055610a363390565b6001600160a01b0316816001600160a01b0316837f2f8788117e7eff1d82e926ec794901d17c78024a50270940304540a733656f0d60405160405180910390a45050565b60006108c7836001600160a01b038416611118565b60006001600160e01b03198216637965db0b60e01b14806104a657506301ffc9a760e01b6001600160e01b03198316146104a6565b6001600160a01b038316610b265760405162461bcd60e51b8152602060048201526024808201527f45524332303a20617070726f76652066726f6d20746865207a65726f206164646044820152637265737360e01b60648201526084016105dc565b6001600160a01b038216610b875760405162461bcd60e51b815260206004820152602260248201527f45524332303a20617070726f766520746f20746865207a65726f206164647265604482015261737360f01b60648201526084016105dc565b6001600160a01b0383811660008181526003602090815260408083209487168084529482529182902085905590518481527f8c5be1e5ebec7d5bd14f71427d1e84f3dd0314c0f7b2291e5b200ac8c7c3b925910160405180910390a3505050565b6001600160a01b038216610c485760405162461bcd60e51b815260206004820152602160248201527f45524332303a206275726e2066726f6d20746865207a65726f206164647265736044820152607360f81b60648201526084016105dc565b610c5482600083611167565b6001600160a01b03821660009081526002602052604090205481811015610cc85760405162461bcd60e51b815260206004820152602260248201527f45524332303a206275726e20616d6f756e7420657863656564732062616c616e604482015261636560f01b60648201526084016105dc565b6001600160a01b03831660008181526002602090815260408083208686039055600480548790039055518581529192917fddf252ad1be2c89b69c2b068fc378daa952ba7f163c4a11628f55a4df523b3ef910160405180910390a3505050565b6000610d3484846109cb565b90506000198114610d9c5781811015610d8f5760405162461bcd60e51b815260206004820152601d60248201527f45524332303a20696e73756666696369656e7420616c6c6f77616e636500000060448201526064016105dc565b610d9c8484848403610ac4565b50505050565b6001600160a01b038316610e065760405162461bcd60e51b815260206004820152602560248201527f45524332303a207472616e736665722066726f6d20746865207a65726f206164604482015264647265737360d81b60648201526084016105dc565b6001600160a01b038216610e685760405162461bcd60e51b815260206004820152602360248201527f45524332303a207472616e7366657220746f20746865207a65726f206164647260448201526265737360e81b60648201526084016105dc565b610e73838383611167565b6001600160a01b03831660009081526002602052604090205481811015610eeb5760405162461bcd60e51b815260206004820152602660248201527f45524332303a207472616e7366657220616d6f756e7420657863656564732062604482015265616c616e636560d01b60648201526084016105dc565b6001600160a01b0380851660008181526002602052604080822086860390559286168082529083902080548601905591517fddf252ad1be2c89b69c2b068fc378daa952ba7f163c4a11628f55a4df523b3ef90610f4b9086815260200190565b60405180910390a3610d9c565b61080f8133611172565b610f6c82826109f6565b600082815260016020526040902061063c9082610a7a565b610f8e82826111cb565b600082815260016020526040902061063c9082611230565b610fae611245565b6007805460ff191690557f5db9ee0a495bf2e6ff9c91a7834c1ba4fdd244a5e8aa4e537bd38aeae4b073aa335b6040516001600160a01b03909116815260200160405180910390a1565b6001600160a01b03821661104e5760405162461bcd60e51b815260206004820152601f60248201527f45524332303a206d696e7420746f20746865207a65726f20616464726573730060448201526064016105dc565b61105a60008383611167565b806004600082825461106c919061180d565b90915550506001600160a01b0382166000818152600260209081526040808320805486019055518481527fddf252ad1be2c89b69c2b068fc378daa952ba7f163c4a11628f55a4df523b3ef910160405180910390a35050565b6110cd61128e565b6007805460ff191660011790557f62e78cea01bee320cd4e420270b5ea74000d11b0c9f74754ebdbfc544b05a258610fdb3390565b60006108c783836112d4565b60006104a6825490565b600081815260018301602052604081205461115f575081546001818101845560008481526020808220909301849055845484825282860190935260409020919091556104a6565b5060006104a6565b61063c8383836112fe565b61117c82826108ce565b6105ef5761118981611364565b611194836020611376565b6040516020016111a5929190611825565b60408051601f198184030181529082905262461bcd60e51b82526105dc9160040161165b565b6111d582826108ce565b156105ef576000828152602081815260408083206001600160a01b0385168085529252808320805460ff1916905551339285917ff6391f5c32d9c69d2a47ea670b442974b53935d1edc7fd64eb21e047a839171b9190a45050565b60006108c7836001600160a01b038416611512565b60075460ff1661076f5760405162461bcd60e51b815260206004820152601460248201527314185d5cd8589b194e881b9bdd081c185d5cd95960621b60448201526064016105dc565b60075460ff161561076f5760405162461bcd60e51b815260206004820152601060248201526f14185d5cd8589b194e881c185d5cd95960821b60448201526064016105dc565b60008260000182815481106112eb576112eb61189a565b9060005260206000200154905092915050565b60075460ff161561063c5760405162461bcd60e51b815260206004820152602a60248201527f45524332305061757361626c653a20746f6b656e207472616e736665722077686044820152691a5b19481c185d5cd95960b21b60648201526084016105dc565b60606104a66001600160a01b03831660145b606060006113858360026118b0565b61139090600261180d565b67ffffffffffffffff8111156113a8576113a86118cf565b6040519080825280601f01601f1916602001820160405280156113d2576020820181803683370190505b509050600360fc1b816000815181106113ed576113ed61189a565b60200101906001600160f81b031916908160001a905350600f60fb1b8160018151811061141c5761141c61189a565b60200101906001600160f81b031916908160001a90535060006114408460026118b0565b61144b90600161180d565b90505b60018111156114c3576f181899199a1a9b1b9c1cb0b131b232b360811b85600f166010811061147f5761147f61189a565b1a60f81b8282815181106114955761149561189a565b60200101906001600160f81b031916908160001a90535060049490941c936114bc816118e5565b905061144e565b5083156108c75760405162461bcd60e51b815260206004820181905260248201527f537472696e67733a20686578206c656e67746820696e73756666696369656e7460448201526064016105dc565b600081815260018301602052604081205480156115fb5760006115366001836118fc565b855490915060009061154a906001906118fc565b90508181146115af57600086600001828154811061156a5761156a61189a565b906000526020600020015490508087600001848154811061158d5761158d61189a565b6000918252602080832090910192909255918252600188019052604090208390555b85548690806115c0576115c0611913565b6001900381819060005260206000200160009055905585600101600086815260200190815260200160002060009055600193505050506104a6565b60009150506104a6565b60006020828403121561161757600080fd5b81356001600160e01b0319811681146108c757600080fd5b60005b8381101561164a578181015183820152602001611632565b83811115610d9c5750506000910152565b602081526000825180602084015261167a81604085016020870161162f565b601f01601f19169190910160400192915050565b80356001600160a01b03811681146116a557600080fd5b919050565b600080604083850312156116bd57600080fd5b6116c68361168e565b946020939093013593505050565b6000806000606084860312156116e957600080fd5b6116f28461168e565b92506117006020850161168e565b9150604084013590509250925092565b60006020828403121561172257600080fd5b5035919050565b6000806040838503121561173c57600080fd5b8235915061174c6020840161168e565b90509250929050565b60006020828403121561176757600080fd5b6108c78261168e565b6000806040838503121561178357600080fd5b50508035926020909101359150565b600080604083850312156117a557600080fd5b6117ae8361168e565b915061174c6020840161168e565b600181811c908216806117d057607f821691505b602082108114156117f157634e487b7160e01b600052602260045260246000fd5b50919050565b634e487b7160e01b600052601160045260246000fd5b60008219821115611820576118206117f7565b500190565b7f416363657373436f6e74726f6c3a206163636f756e742000000000000000000081526000835161185d81601785016020880161162f565b7001034b99036b4b9b9b4b733903937b6329607d1b601791840191820152835161188e81602884016020880161162f565b01602801949350505050565b634e487b7160e01b600052603260045260246000fd5b60008160001904831182151516156118ca576118ca6117f7565b500290565b634e487b7160e01b600052604160045260246000fd5b6000816118f4576118f46117f7565b506000190190565b60008282101561190e5761190e6117f7565b500390565b634e487b7160e01b600052603160045260246000fdfe45524332304d696e7465724275726e6572446563696d616c733a206d75737420a2646970667358221220e4cf12f5bee2a1f37e64eed731dbbd8b41d925a2460a26231afca05666db38b564736f6c634300080a0033",
  "linkReferences": {},
  "deployedLinkReferences": {}
}